:10000000FDC0000018C1000016C1000014C10000AE
:1000100012C1000010C100000EC100000CC10000A0
:100020000AC1000008C1000006C1000004C10000B0
:1000300002C1000000C10000FEC00000FCC00000C2
:10004000FAC00000F8C00000F6C00000F4C00000D4
:10005000F2C00000F0C00000EEC00000ECC00000E4
:10006000EAC00000E8C00000E6C00000E4C00000F4
:10007000E2C00000E0C00000DEC00000DCC0000004
:10008000DAC00000D8C000000AC30000D4C00000DD
:10009000D2C00000D0C00000CEC00000CCC0000024
:1000A000CAC00000C8C00000C6C00000C4C0000034
:1000B000C2C00000C0C00000BEC00000BCC0000044
:1000C000BAC00000B8C00000B6C00000B4C0000054
:1000D000B2C00000B0C00000AEC00000ACC0000064
:1000E000AAC00000A8C00000A6C00000A4C0000074
:1000F000A2C00000A0C000009EC000009CC0000084
:100100009AC0000098C0000096C0000094C0000093
:1001100092C0000090C000008EC000008CC00000A3
:100120008AC0000088C0000086C0000084C00000B3
:1001300082C0000080C000007EC000007CC00000C3
:100140007AC0000078C0000076C0000074C00000D3
:1001500072C0000070C000006EC000006CC00000E3
:100160006AC0000068C0000066C0000064C00000F3
:1001700062C0000060C000005EC000005CC0000003
:100180005AC0000058C0000056C0000054C0000013
:1001900052C0000050C000004EC000004CC0000023
:1001A0004AC0000048C0000046C0000044C0000033
:1001B00042C0000040C000003EC000003CC0000043
:1001C0003AC0000038C0000036C0000034C0000053
:1001D00032C0000030C000002EC000002CC0000063
:1001E0002AC0000028C0000026C0000024C0000073
:1001F00022C000000C943E120C94021311241FBE66
:10020000CFEFCDBFDFE2DEBF11E2A0E0B0E2E2E679
:10021000FFE302C005900D92AA34B107D9F722E29C
:10022000AAE4B1E201C01D92AA3AB207E1F70E9426
:10023000201A0C94AF1FE4CEEF92FF920F931F93FE
:10024000E82FDB01CA01E130E9F090F0E23031F053
:1002500088EF1F910F91FF90EF900895A701B901CA
:100260000E94DF0980E01F910F91FF90EF900895A9
:10027000A701B9010E94B50A80E01F910F91FF907C
:10028000EF900895A701B9010E94CF0A80E01F9165
:100290000F91FF90EF900895EF92FF920F931F93AD
:1002A000E82FDB01CA01B901E130E1F088F0E2306A
:1002B00031F088EF1F910F91FF90EF900895A70103
:1002C0000E94760A80E01F910F91FF90EF900895B1
:1002D00021E0A7010E94910B80E01F910F91FF90F8
:1002E000EF90089521E0A7010E94EC0A80E01F91A1
:1002F0000F91FF90EF9008950F931F9381E099E085
:10030000ADE3B0E00197A109B109E1F70E94B61A87
:1003100000E010E020E647E06EE18AE392E20E940E
:100320001A1C6EE18AE392E20E94C71A10923A22E6
:1003300010923B2210923C2210923D2210923E22BB
:1003400010923F221F910F9108950F931F9310E079
:1003500020E080FF0FC090E490933A2281FF14C008
:1003600080E680933E2280910520811117C01F9165
:100370000F91089510923A2210923B2210923C2243
:1003800010E428E081FDECCF10923D2210923E2235
:1003900010923F2280910520882349F300E047E036
:1003A0006CE180E492E20E941A1C6EE18AE392E220
:1003B0001F910F910C94C71A0F931F9300E010E048
:1003C00020E047E06CE180E492E20E941A1C6EE1BA
:1003D0008AE392E21F910F910C94C71A0F931F9317
:1003E000262F042F182F47E06CE180E492E20E9450
:1003F0001A1C6EE18AE392E21F910F910C94C71AC6
:100400008093052008951092052081E080934F216C
:10041000089510924F2181E0809305200895309136
:100420004D2180910420282F26953217C1F040914C
:100430004E219BEA241791F1899F912D11249695C5
:1004400050914C215917C9F0311123C041111CC0E2
:1004500010924C2120934D2120934E21089580919C
:100460004E21882329F010924E2130934C2108957B
:1004700010924D2130934E21089510924C211092EC
:100480004E2180934D21089510924E2180934C214E
:10049000089510924D2180934E210895899F812DBA
:1004A0001124869580934C2180934E2180934D2179
:1004B0000895CF93DF9300D0CDB7DEB76A838983E9
:1004C000AEDF23E030E06A81261B3109922F990FBD
:1004D000990F990F921B8981981B892F27E0290F6B
:1004E00030E0F901EE0FFF1F2E0F3F1FF901E65C10
:1004F000FD4D20914C2130914D2140914E21208382
:1005000031834283885F90E0FC01EE0FFF1F8E0F66
:100510009F1FFC01E65CFD4D20833183428362E036
:100520008AE392E20E94C71A44E067E080E492E224
:100530000F900F90DF91CF910C94321BCF92DF92EE
:10054000EF920F93CF93DF93C82FD42F611137C051
:10055000C0904C21D0904D21E0904E2126E02C1BE4
:1005600007E044E067E080E492E20E94801CC090D3
:100570004C21D0904D21E0904E2125E02C1B44E0F1
:1005800067E080E492E20E94801CD11107C0DF91F5
:10059000CF910F91EF90DF90CF90089562E08AE3C2
:1005A00092E20E94C71A44E067E080E492E2DF91A1
:1005B000CF910F91EF90DF90CF900C94321B2FDFF3
:1005C000C7CFCF92DF92EF920F93C0904C21D09083
:1005D0004D21E0904E21882329F18130C9F18230EC
:1005E00059F180914A2129E0281B07E044E067E0A7
:1005F00080E492E20E94EE1D80914A218F5F8A3052
:1006000040F480934A2180E00F91EF90DF90CF90EB
:10061000089510924A2103DF81E00F91EF90DF905F
:10062000CF90089507E020914A2144E067E080E4FC
:1006300092E20E94161DE0CF80914A2129E0281BFA
:1006400007E044E067E080E492E20E94161DD4CF08
:1006500007E020914A2144E067E080E492E20E94B2
:10066000EE1DCACF80914F21811101C00895809164
:100670004B21A7DF90914B21890F843068F4809340
:100680004B2162E08AE392E20E94C71A44E067E0ED
:1006900080E492E20C94321B10924B21F2CF1F9215
:1006A0000F920FB60F9211242F933F934F935F93A6
:1006B0006F937F938F939F93AF93BF93EF93FF932A
:1006C00081E080936C060E941210FF91EF91BF9120
:1006D000AF919F918F917F916F915F914F913F91DA
:1006E0002F910F900FBE0F901F901895CF93DF930F
:1006F000CDB7DEB72797CDBFDEBF8FEF80937000F9
:1007000080937100809372008093730080937400D3
:10071000809375008093760064E081E490E049D690
:100720006CE170E082E00E94410C8C836DE170E02E
:1007300082E00E94410C8B838B819C818F3F2FEF45
:10074000920709F443C089839A83809362008A8167
:10075000809363008FB78E83F8949E8180915000C0
:100760008260809350009FBF8091510081FFFCCF39
:100770008FB78D83F8949D8180915600897F8093F7
:10078000560080E8809365008BEB80936600809133
:100790005600846080935600809160008160809351
:1007A00060009FBF61E080E490E003D68FB78F8345
:1007B000F8949F81809150008E7F809350009FBF5E
:1007C0002796CDBFDEBFDF91CF91089580E493E2FD
:1007D0008B839C83B8CFCF93DF9300D01F92CDB78C
:1007E000DEB7863009F441C063E08091510081FF9B
:1007F00013C084E490E0DDD58FB78B83F8949B81A0
:10080000809170008F7B809370009FBF2396CDBF37
:10081000DEBFDF91CF9108958FB78A83F8949A81D4
:10082000809150008260809350009FBF8091510062
:1008300081FFFCCF8FB78983F8949981809156000E
:10084000897F8093560080E8809365008BEB8093CE
:10085000660080915600846080935600809160000D
:100860008160809360009FBFC4CF6BE1BECF80E00A
:10087000089510926621109264211092582188E008
:10088000E9E5F1E2DF011D928A95E9F71092612115
:100890000C94AF1A0C94B31A2CE534E04CE050E2FF
:1008A00064E671E286E691E2F8C0809162210E94DE
:1008B00015148091622149CD30919C2220919D2276
:1008C000822F90E0029711F080E008953111FCCF63
:1008D0008091A0229091A12281309105A9F722E672
:1008E00031E22093A2223093A32225E534E0209325
:1008F000A6223093A7228093A4229093A52281E080
:1009000008950F931F9388E0E9E5F1E2A0E5B1E2D5
:1009100001900D928A95E1F7109261210DE914E0A2
:1009200028E030E040E551E260E081E80E940711F4
:10093000809358211F910F91089510925821809112
:100940006121811101C00895DCCF1F93CF93DF9304
:100950001F92CDB7DEB79FB79983F8941981809520
:100960009091592189238093592181E080936121BD
:1009700080915821811101C0C4DF1FBF81E00F9019
:10098000DF91CF911F9108951F93CF93DF931F9213
:10099000CDB7DEB79FB79983F8941981909159210B
:1009A000892B8093592181E0809361218091582186
:1009B000811101C0A6DF1FBF81E00F90DF91CF91B1
:1009C0001F9108951F93CF93DF931F92CDB7DEB78A
:1009D0009FB79983F8941981EBE5F1E292E02191B8
:1009E000222329F0281751F09F5F9830C1F71FBFCD
:1009F00081E00F90DF91CF911F910895892F97305B
:100A000049F0E82FF0E0E75AFE4D918190838F5F27
:100A10008730B9F71092602181E080936121809145
:100A200058218111E4CF6DDF1FBF81E00F90DF916E
:100A3000CF911F9108951F93CF93DF931F92CDB74E
:100A4000DEB79FB79983F8941981EBE5F1E222E0D4
:100A500030E09191992371F09817C1F02F5F3F4FCB
:100A600028303105B1F71FBF80E00F90DF91CF91A3
:100A70001F910895F901E75AFE4D808381E080932C
:100A8000612180915821811101C03BDF1FBF81E0AE
:100A90000F90DF91CF911F910895CF93DF93DC01E9
:100AA00090919A2297FD14C09076903221F080E0C8
:100AB000DF91CF91089580919B228A3009F448C03C
:100AC0008B30C9F1893099F7F901DF91CF91099401
:100AD000907661F0903259F780919B22823009F430
:100AE0005AC08330D1F1813011F7EECF80919B2233
:100AF0008630E9F6EA014AD1FC0122852132B9F6B5
:100B000020919D222132A1F1FC0137852313CFCF03
:100B1000C093A222D093A322208931898091A02260
:100B20009091A12228173907A0F18093A4229093D5
:100B3000A52281E0BDCF8091A0229091A122892B96
:100B400009F0B5CF80919C22FB01808381E0B0CF7A
:100B500080919D228C9381E0ABCF6093A222709311
:100B6000A32281E090E08093A4229093A522A0CFBD
:100B70009C01275F3F4F2093A2223093A322FC01C8
:100B800081852091A0223091A12290E02817390779
:100B900060F6C901CACFA093A222B093A32281E03C
:100BA00090E08093A4229093A52282CF80919C22F2
:100BB0008F770C940710E0916C21F0916D210190DA
:100BC000F081E02D9481891728F5E0936A21F09354
:100BD0006B21228133812E0F3F1FE217F30738F07C
:100BE00019C09081E90FF11DE217F30778F49181A4
:100BF0009430B9F792818913F4CF93819613F1CF92
:100C0000E0936A21F0936B2181E00895E0936A21DB
:100C1000F0936B2180E00895FF920F931F93CF9381
:100C2000DF9390916E21911108C0F12C8F2DDF91EF
:100C3000CF911F910F91FF900895C82F60E0BBDF07
:100C4000882399F3A0916C21B0916D21EC2FF0E0F5
:100C5000CF01880F991F1296ED91FC911397E80F21
:100C6000F91F00811181D8011696ED91FC9117971B
:100C7000099590916E219923C1F2682F8C2F9BDFEB
:100C8000F82E882391F2C0916A21D0916B21E091D6
:100C90006C21F0916D210190F081E02D2281338152
:100CA0002E0F3F1F05C09981943041F0953099F087
:100CB0009881C90FD11DC217D307A8F3D801129686
:100CC000ED91FC91139709958F2DDF91CF911F9195
:100CD0000F91FF900895209789F38A810E94051251
:100CE000D6CF1F93CF93DF9390916E21911105C0C2
:100CF00080E0DF91CF911F910895182F5CDF88234A
:100D0000B9F3C0916A21D0916B21A0916C21B0916F
:100D10006D21ED91FC911197228133812E0F3F1FA0
:100D20008881C80FD11DC217D30788F48981843008
:100D300071F0853031F41FC09981943041F09530C5
:100D4000D1F09881C90FD11DC217D307A8F3E12FA5
:100D5000F0E0EE0FFF1F12968D919C911397E80F14
:100D6000F91F0190F081E02D0190F081E02DDF91DD
:100D7000CF911F910994209751F34C815D816B8134
:100D80008A810E942A108111C0CFB2CF80916A213E
:100D900090916B2108950C948F0FCF9380916E21C9
:100DA0008823C1F0E0916C21F0916D210190F081D8
:100DB000E02D8481882371F0C0E08C2F2DDFCF5F80
:100DC000E0916C21F0916D210190F081E02D848102
:100DD000C81798F310926E2110927221109273210D
:100DE000CF910895CF9380916E21882349F1A091EE
:100DF0006C21B0916D21ED91FC9111978481882334
:100E0000F9F0C0E0EC2FF0E0EE0FFF1F12968D918D
:100E10009C911397E80FF91F0190F081E02D008459
:100E2000F185E02D309729F00995A0916C21B091C2
:100E30006D21CF5FED91FC9111978481C81710F35C
:100E4000CF910895EF92FF920F931F93CF93DF936B
:100E50001F92CDB7DEB71092A4221092A522109255
:100E6000A6221092A7221092A8221092A922809165
:100E70009A2287FD14C0982F907609F474C0982F99
:100E80009F71913009F497C0923061F180E00F902A
:100E9000DF91CF911F910F91FF90EF9008952091D6
:100EA000A0223091A1222115310581F3982F90764F
:100EB00031F7982F9F7109F025C190919B229630B0
:100EC00009F49EC1983009F4CEC19111DFCF2230D0
:100ED0003105E1F662E070E082E791E20E942310C2
:100EE00081E0D5CF80916E21882381F2A0916C2181
:100EF000B0916D21ED91FC9111978481882331F29D
:100F0000F12C1AC0682F8F2D56DE882309F4BECF2E
:100F1000D8011496ED91FC91159709958111E0CFB8
:100F2000F394A0916C21B0916D21ED91FC911197FA
:100F30008481F81608F0AACFEF2DF0E0EE0FFF1F26
:100F400012968D919C911397E80FF91F00811181E2
:100F5000D8011696ED91FC911797099590916E2105
:100F60009111D0CF93CF982F9F7109F067C08091D6
:100F70009B22853009F4E4C0893009F488C08130AF
:100F800009F084CF8091A0229091A122892B09F0B1
:100F90007DCF80919C2290919D22019709F076CF80
:100FA00080917221909173218D7F80937221909313
:100FB000732181E06CCF80916E21882309F466CF84
:100FC00000919E2210919F22E0906C21F0906D2163
:100FD000D701ED91FC918481081708F057CF60E0AC
:100FE000802FE9DD882331F1F801FF27CF01880F39
:100FF000991FD7011296ED91FC911397E80FF91FF5
:10100000E080F180D7011696ED91FC911797099534
:1010100090916E21992309F439CF682F802FCBDD71
:10102000882341F0D7011496ED91FC91159709950D
:10103000811156CF90919A229F7126CF913009F459
:1010400043C0923009F01DCF80919B22813009F47A
:1010500086C0833009F046CF8091A0229091A122D2
:10106000892B09F03FCF80919C2290919D22892B62
:1010700009F038CF80919E220E94B91180919E2262
:101080000E94211281112CCF80919A22F8CE80915A
:10109000A0229091A122892B09F0F8CEBBD78823FA
:1010A00079F020919C2230919D223327E0915120AC
:1010B000F0915220818990E08217930708F0DEC0FA
:1010C00090919A229F71DDCE90919B229B3009F0E6
:1010D000D6CE8091A0229091A122892B09F06BCFCE
:1010E00080916E21882309F4D1CE10919E226091C7
:1010F0009C22812F698390DD6981882309F3812FE8
:10110000F0DDC0CF913009F43DC0923009F0B9CE86
:1011100080919B228111E6CE2230310509F0E2CE8A
:1011200080919E220E94A71090E080936821909366
:10113000692162E070E088E691E285D781E0A7CE80
:101140008091A0229091A122892B09F09FCE86ED5B
:1011500095E08093A6229093A72281E098CE80917B
:10116000A0229091A122892B09F0BCCE80919C22D3
:1011700090919D22892B09F0B5CE80919E220E94EC
:10118000C21080CF90919B229A3009F078CE809146
:101190006E212130310509F010CF882309F476CE75
:1011A000E0909E22F0909F2200916C2110916D2181
:1011B000D801ED91FC919481E91608F0FECE60E033
:1011C0008E2DF9DC882309F47BCFC7019927880F7E
:1011D000991FD8011296ED91FC911397E80FF91F12
:1011E0000190F081E02D86819781FC010995809323
:1011F000702161E070E080E791E225D781E047CE81
:1012000020919C2230919D22432F55274230510539
:1012100009F49FC00CF468C04330510509F471C053
:101220004F30510509F032CE8091552090915620D3
:10123000009709F42BCEDC0112966D917C911397E7
:1012400002D78091A0229091A1222091A4223091D6
:10125000A5228217930708F043CE8093A42290938F
:10126000A52281E014CE2130310509F00FCE61E0D6
:1012700070E08EE691E2E7D681E009CE8EDD8091C6
:101280009C2290919D2280936E21882309F428CE80
:1012900099278150904C880F991F880F991FE091D2
:1012A0005320F0915420E80FF91FE0936C21F09344
:1012B0006D210190F081E02D8481882309F410CE06
:1012C00010E060E0812F0DDD882309F4F9CE1F5F67
:1012D000E0916C21F0916D210190F081E02D8481ED
:1012E000181778F381E0D3CD4130510509F0CECD08
:1012F0008091512090915220DC016C9170E0A3D636
:10130000A0CF33272130310509F444C008F44AC086
:101310002230310509F442C02330310509F0AFCD48
:1013200029E082ED90E2382FA4E9B0E2FC0181913E
:1013300090E08D939D938E2F831B8217C0F3622FB5
:10134000660F6E5F6093922070E082E990E27BD638
:1013500078CFE0915120F09152208189281708F030
:1013600095CDC9019927880F991F880F991FE09182
:101370005320F0915420E80FF91F80819181FC01E6
:101380006281738160D6E091A222F091A32282E073
:10139000818357CF29E083EB90E2C5CF2AE088EA2A
:1013A00090E2C1CF64E070E08EEB90E24CD649CF82
:1013B00008951BBEFC0128ED24BF608308959C01A5
:1013C000FB019091CF0197FDFCCF9091CC019860EB
:1013D0009093CC01B901705FCF010E94581F80919A
:1013E000CC01877F8093CC0108958091CF0187FD48
:1013F000FCCF8091CF0181FF089586E38093CA01DD
:1014000061E08BEC91E0D5CFEF92FF921F93CF93E9
:10141000DF931F92CDB7DEB77C011091CA016983BB
:10142000E4DF69819091CF0197FDFCCF9091CF01CE
:1014300097FDFCCF8091CC0188608093CC01F701AF
:10144000FF27F05F60838091CC01877F8093CC0180
:101450001092C201F092C101E092C00185E3809335
:10146000CA0161E08BEC91E0A4DF1093CA010F90F8
:10147000DF91CF911F91FF90EF9008952091CF01C0
:1014800027FDFCCFDC01E0E0F0E19D918091CF01F0
:1014900087FDFCCF8091CC0188608093CC01919333
:1014A0008091CC01877F8093CC01E03280E1F80706
:1014B00061F70895CF939091CF0197FDFCCF20E283
:1014C000829FC00111241092C2019093C1018093A8
:1014D000C001C091CA0185E38093CA0161E08BEC31
:1014E00091E067DFC093CA01CF910895CF92DF9258
:1014F000EF92FF920F931F93CF93DF93EC017B0149
:101500008A0101151105A9F0CE018F719927892B48
:1015100019F400321105B0F46E01EFEFCE1ADE0AB5
:10152000F70161917F01CE016FDF01501109E601E2
:1015300059F7DF91CF911F910F91FF90EF90DF90BE
:10154000CF900895C7019ADFCE0196958795929521
:1015500082958F7089279F708927ACDFA09680E2E3
:10156000E80EF11C00521109CCCF0F931F93DB0141
:101570002091CF0127FDFCCF4115510569F04A0F9D
:101580005B1F8C0120E030E02BBFF80107910D9329
:101590000196A417B507A9F71F910F910895EF922F
:1015A000FF920F931F93CF93DF937B018A01EC018E
:1015B000DD27452B51F0BE0181E063D1F701819316
:1015C0007F01219601501109B1F7DF91CF911F9151
:1015D0000F91FF90EF9008952F923F924F925F925C
:1015E0006F927F928F929F92AF92BF92CF92DF9233
:1015F000EF92FF920F931F93CF93DF9300D000D011
:10160000CDB7DEB75C016B837C83222E411551057B
:1016100009F44AC0312C88248A94982C7A0101E07C
:1016200010E0412C512C32011EC089829A82E114B3
:10163000F10441F0AC14BD0409F455C00A151B05B2
:1016400009F45DC049815A81C301B2010E940F4073
:10165000F2E04F0E511C611C711C0E5F1F4F0130D8
:1016600021E0120791F062012220F9F2B20181E03B
:1016700008D18983B80181E004D18A8389819A8164
:101680000196A9F233243394D2CFA701EF2831F683
:10169000332051F08091CF0187FDFCCF48E160E01D
:1016A00070E0CB010E9400408091CF0187FDFCCF0C
:1016B0004AE160E070E0CB012496CDBFDEBFDF9150
:1016C000CF911F910F91FF90EF90DF90CF90BF903F
:1016D000AF909F908F907F906F905F904F903F90D2
:1016E0002F900C94004081E0E81AF108EB81FC8116
:1016F0008191EB83FC838983E114F10471F021E093
:10170000E21AF108560182E0A80EB11CEB81FC81BF
:101710008191EB83FC838A8395CFFFEFAF1ABF0AD9
:1017200091CF2F923F924F925F926F927F928F92C2
:101730009F92AF92BF92CF92DF92EF92FF920F9360
:101740001F93CF93DF9300D0CDB7DEB75C013B0191
:101750007A01322E2C014424452B09F469C08824D7
:101760008A94982C8091CF0187FDFCCF620121E003
:10177000C20ED21E82010F5F1F4F212C21C0A90172
:1017800060E070E06BBFFA018791969189839A833C
:10179000019609F1CB01BA0122242394E114F1044A
:1017A00031F02A153B05D1F00A151B0511F14981CD
:1017B0005A810E940F400E5F1F4FC016D10629F1BB
:1017C0009801215031093110DACF89829A82B9010A
:1017D00080E090E0E3CFCB01BA01E0CFF1E0EF1A77
:1017E000F108F30121913F012983E114F10409F487
:1017F00046C0F1E0EF1AF10858012FEFA21AB20A21
:10180000F30121913F012A83D2CF222031F180912F
:10181000CF0187FDFCCFC201A0E0B0E045E2BC01F2
:10182000CD010E9400405394E114F10409F09ACFD5
:101830000F900F90DF91CF911F910F91FF90EF903C
:10184000DF90CF90BF90AF909F908F907F906F90E0
:101850005F904F903F902F9008958091CF0187FD2A
:10186000FCCFC201A0E0B0E044E2BC01CD010E9487
:1018700000405394E114F10409F074CFD9CF58011A
:1018800096CF4091CA01E62FF72F8093CA01849129
:101890004093CA010895CF93DF9300D0CDB7DEB750
:1018A00090910022811117C0992371F09091952297
:1018B000992349F19FB79A83F8942A8190919522B0
:1018C0009150909395222FBF809300220F900F90FC
:1018D000DF91CF9108959111F7CF909195229F3F7D
:1018E00089F09FB79983F8942981909195229F5F01
:1018F000909395222FBF809300220F900F90DF913D
:10190000CF910895FFCFFFCF0F93E8ECF4E08081F3
:101910008F7D808380818F7D8083E4EEF1E202E021
:1019200005931092E6211092E72100E2069300E46D
:101930000693ECEDF1E200E40693EAE9F2E21486A4
:10194000158616861786128613861092D3210F915C
:1019500008950F93CF93DF938091D321833009F4BF
:1019600055C02091CF213091D021C091A422D09197
:10197000A522C21BD30B21F1C830D10508F442C007
:1019800010927421C8E0D0E0C093E621D093E72103
:101990008091A2229091A322820F931F8093E8212D
:1019A0009093E921C20FD31FC093CF21D093D021B0
:1019B000E4EEF1E202E00693DF91CF910F910895FA
:1019C0008091D1219091D221820F931F8093D121B8
:1019D0009093D2214091A0225091A1228417950783
:1019E00001F18091742181111CC0E091A822F09135
:1019F000A922309739F0099581111EC02091CF217D
:101A00003091D02181E080937421BECFE091A62255
:101A1000F091A722309709F00995DF91CF910F91AE
:101A200073CF84E08093D321ECEDF1E202E00693E2
:101A3000DF91CF910F910895C091A422D091A5225A
:101A400020E030E099CF2F923F925F926F927F9289
:101A50008F929F92AF92BF92CF92DF92EF92FF92BE
:101A60000F931F93CF93DF9300D0CDB7DEB7582EDF
:101A7000982F9F70881F8827881F292F30E0220FFA
:101A8000331F1901280E311C8101025011099101E7
:101A9000220F331F220F331F220F331FF901EC5285
:101AA000FE4DE185E770E150E73008F083C0F0E0DB
:101AB000EE0FFF1FE452FF4D80809180811180C0A6
:101AC000F901EC52FE4DA284B3847801EE0CFF1CA8
:101AD000EE0CFF1CEE0CFF1CF701E00FF11FEB54A6
:101AE000FE4D808182FD1BC165807680C380D480DD
:101AF0006A0C7B1CF701E00FF11FEB54FE4D658271
:101B00007682C614D704A0F5C582D682D901AC521C
:101B1000BE4D1E968D919C911F97808180FF36C08F
:101B20000E0D1F1DD801AB54BE4D8C918E7F8C9332
:101B30001796ED91FC911897309741F115966D919C
:101B40007C911697452D80E00F900F90DF91CF91FB
:101B50001F910F91FF90EF90DF90CF90BF90AF90CB
:101B60009F908F907F906F905F903F902F900994FF
:101B7000D901AC52BE4D1E968D919C911F978A152E
:101B80009B0509F491C0808180FDCACF0F900F9012
:101B9000DF91CF911F910F91FF90EF90DF90CF9049
:101BA000BF90AF909F908F907F906F905F903F908D
:101BB0002F90089578E0872E912C882309F480CF08
:101BC000A9014C525E4DDA011E96ED91FC911F97D2
:101BD0007801EE0CFF1CEE0CFF1CEE0CFF1CD70175
:101BE000A00FB11FAB54BE4D15968D919C911697C9
:101BF000E80FF91F1596ED93FC9316971396CD9069
:101C0000DC901497EC15FD0509F4A5C0CE1ADF0A87
:101C1000C114B4E0DB0650F0CC24CA9443E0D42EC7
:101C2000C601B4010E94E01EC81AD90AD701A00F4C
:101C3000B11FAB54BE4D8C9181FFA3C0C601B4014E
:101C40000E94E01EAC0191E0452B09F0AEC0892F47
:101C50000E0D1F1D0B541E4DD8019C9180FB91F958
:101C60009C932C523E4DD9011E961D921C921F979B
:101C70001A96CD92DC921B97D80111968D919C916A
:101C80001297E80FF91FD9011C96ED93FC931D974D
:101C9000F101EE0FFF1FEE0FFF1FEE0FFF1FE452CB
:101CA000FE4D02E0069372CF6C147D0409F46BCFF5
:101CB000C618D708C11484E0D80608F46FC0EFEF47
:101CC000F3E0CF01B4010E94E01E6F01C81AD90AE7
:101CD000F901EC52FE4D128613860E0D1F1DD80120
:101CE000AB54BE4DC814D90408F04DC08C9184602B
:101CF0008C93A0E45A9EC00111248B5C9E4D848776
:101D0000958786869786F101EE0FFF1FEE0FFF1F66
:101D1000EE0FFF1FE452FE4D02E0069337CFC38063
:101D2000D480658076800180F281E02DC601B40107
:101D30000E94E01E40E4549EB00111246B5C7E4D75
:101D4000AC01CF01860D971D29833A830E94581F4D
:101D50003A812981CDCE8C9181FF16CF8D7F8C93D6
:101D6000FA011686178612861386F101EE0FFF1F01
:101D7000EE0FFF1FEE0FFF1FE452FE4D02E0069331
:101D800005CF80E065CF11968D919C911297680EDA
:101D9000791E64867586C686D786B5CFC601B4011E
:101DA0000E94E01EC81AD90A93CF90E050CFEF925C
:101DB000FF920F93CF93DF9381E08093CC04CCED1F
:101DC000D1E2FE0100E8069394EEE92E91E2F92EAD
:101DD000F70100E806938093CA04FE0100E1069330
:101DE0008091D321882321F08350823070F08CDDE4
:101DF0008091DE219091DF21089779F081E0DF91D9
:101E0000CF910F91FF90EF900895E091A622F0916D
:101E1000A722309761F30995EACF88E0E7ECF1E279
:101E2000AAE9B2E201900D928A95E1F78091C80487
:101E300080628093C8048091C80480628093C80443
:101E400001D88823D9F080919A2287FD2EC08091F5
:101E5000A0229091A122892BE9F01092D121109219
:101E6000D2211092CF211092D02181E08093D321F2
:101E7000FE0102E0069300E20693C0CF85E0809366
:101E8000D321E5EEF1E204E00593EDEDF1E204E0AB
:101E90000593B4CF83E08093D3211092E621109272
:101EA000E721F70102E00693A9CF1092D121109209
:101EB000D2211092CF211092D02182E08093D321A1
:101EC00048DD9CCF1F93CF93DF931F92CDB7DEB732
:101ED0008FB78983F894198181E0DDDCEAECF4E0C6
:101EE00080E4808380E28083E1ECF4E080818160A3
:101EF0008083A9ECB4E08C9182608C93E8ECF4E0F0
:101F00008081806480838C9181608C9380818068E3
:101F100080831FBF0F90DF91CF911F9108951F9372
:101F2000CF93DF9300D0CDB7DEB71092600080E38F
:101F30000E94EB038091C00480648093C00481E020
:101F4000809360008FB78A83F8941A811092DD2104
:101F50001092E5211092ED211092F5218091B5218A
:101F60008E7F8093B5218091BE218E7F8093BE218C
:101F70006AE170E082E085DC8F3F09F446C080931F
:101F8000FA046BE170E082E07CDC8F3F09F48FE1C2
:101F90008093FB048091C00481608093C004809191
:101FA000C00480688093C0048091C00480618093E5
:101FB000C0048CED91E28093C6049093C704809195
:101FC000C00480628093C0048FEF8093C504809129
:101FD000C80482608093C8041092002280919922E4
:101FE0008F3F09F4FFCF8FB78983F894998180914F
:101FF00099228F5F809399229FBF64DF1FBF0F904C
:102000000F90DF91CF911F9108958FE1B8CF80930A
:10201000C30408958091C30408958091FC21909198
:10202000FD210895809100228111089581E033DC23
:102030008091C1048B7F8093C1048091C10484602E
:102040008093C1040895EAE9F2E28087918762876C
:1020500073870895CF93DF93282F2F7030E0220FDE
:10206000331F082E000C990B8827990F881F99277A
:10207000820F931FDC01AA0FBB1FAA0FBB1FAA0F61
:10208000BB1FFD01EC52FE4D2185207C21F080E03C
:10209000DF91CF9108956370613009F444C0A0F1DD
:1020A00020E84038510509F448C080F54032510518
:1020B00009F447C04034510509F441C0403151058D
:1020C000A1F130E0ED01CC52DE4D1986880F991F49
:1020D000880F991F880F991FFC01E452FE4D96E06E
:1020E0009083832F822B89878985807C803CF9F0BF
:1020F000AC52BE4D19968C911997806219968C93AB
:1021000081E0DF91CF91089520E4CBCF411532E0FB
:102110005307D9F04F3F33E05307A9F04115514021
:1021200081F635E0CFCF20ECBCCF31E0CBCF898535
:1021300087708730E9F681E0ABCF34E0C3CF33E07E
:10214000C1CF32E0BFCF37E0BDCF36E0BBCFE82F05
:10215000EF70F0E0EE0FFF1F082E000C990B8827A0
:10216000990F881F9927E80FF91FEE0FFF1FEE0F39
:10217000FF1FEE0FFF1FEC52FE4D818582FB88276B
:1021800080F908950F93282F2F7030E0220F331F0E
:10219000082E000C990B8827990F881F9927820F0A
:1021A000931FFC01EE0FFF1FEE0FFF1FEE0FFF1F2F
:1021B000E452FE4D01E00693FC01EE0FFF1FEE0F0F
:1021C000FF1FEE0FFF1FEC52FE4D218522FF13C0B3
:1021D00021852B7F21870297FC01EE0FFF1FEE0F59
:1021E000FF1FEE0FFF1F8E0F9F1FFC01EB54FE4DD4
:1021F000808180FD03C081E00F9108958E7F8083F0
:102200000780F085E02D099581E00F910895AF9248
:10221000BF92CF92DF92FF920F931F93CF93DF93E2
:102220001F92CDB7DEB7F82EC901EF2DEF703F2D0D
:10223000331F3327331FF0E0EE0FFF1FE30FF11DB5
:102240006F01CC0CDD1CCC0CDD1CCC0CDD1CD601D4
:10225000AC52BE4D19962C911997207C09F457C0A9
:1022600019962C911997207C203C21F019962C91DD
:1022700022FD4DC032972FB72983F89479815F01F1
:10228000AA0CBB1CAA0CBB1CAA0CBB1CD501AE0F14
:10229000BF1FAB54BE4D2C9120FD4CC021602C9330
:1022A0007FBF11964D935C93129713968D939C93D9
:1022B000149715961D921C92169717960D931C93C2
:1022C000189741E0611103C0009709F040E0D50183
:1022D000AE0FBF1FAB54BE4D2C9140FB21F92B7F9D
:1022E0002C93311121C0D601AC52BE4D19962C91C0
:1022F0001997207C203C09F1F601EC52FE4D128624
:102300001386168617868F2D9EDB31E001C030E0E4
:10231000832F0F90DF91CF911F910F91FF90DF904E
:10232000CF90BF90AF900895F601EC52FE4D168607
:102330001786E9CF7FBF30E0EBCF1996AC91A7703D
:10234000A150A73098F4B0E0AA0FBB1FA452BF4D14
:102350006D917C910E94E01E892B71F2EA0DFB1DAC
:10236000EB54FE4D80818E7F8083D2CF68E070E099
:10237000F1CF0F93282F2F70482F441F4427441F5D
:1023800030E0220F331F240F311DB9016250710953
:10239000F901EE0FFF1FEE0FFF1FEE0FFF1FE452BC
:1023A000FE4D02E00593FB01EE0FFF1FEE0FFF1F36
:1023B000EE0FFF1FE60FF71FEB54FE4D908190FFCD
:1023C0001AC09E7F90830780F085E02D309799F0AA
:1023D000220F331F220F331F220F331FD901AC529C
:1023E000BE4D41110AC01A966D917C911B97482FE2
:1023F00081E00F9109940F9108951E966D917C9143
:102400001F97482F81E00F910994CF93C82FB1DF18
:10241000EC2FEF70F0E0EE0FFF1F8C2FCC0F990B1D
:102420008827990F881F9927E80FF91FEE0FFF1FC4
:10243000EE0FFF1FEE0FFF1FEC52FE4D1186CF91E6
:102440000895E82FEF70F0E0EE0FFF1F282F082E01
:10245000000C330B2227330F221F3327E20FF31F09
:10246000EE0FFF1FEE0FFF1FEE0FFF1FEC52FE4D92
:102470009185946091877DDF81E008951F920F928E
:102480000FB60F9211240F932F933F934F935F93A7
:102490006F937F938F939F93AF93BF93EF93FF932C
:1024A0008091CB0487FD40C08091CB0482FF19C08E
:1024B00084E08093CA048091E42186FD4FC0FF919F
:1024C000EF91BF91AF919F918F917F916F915F91AC
:1024D0004F913F912F910F910F900FBE0F901F9032
:1024E00018958091CB0481FF26C082E08093CA04B6
:1024F0008091DC2186FFE3CF8091CC0481FDDFCF8A
:102500008091CC0480FD41C08091D321823009F4B8
:1025100071C08330A1F6E5EEF1E204E00593EDED44
:10252000F1E204E00593CBCF80E88093CA040E94D7
:10253000F206C9D7C4CF8091CB0484FD36C0809108
:10254000CB0486FD1BC08091CB0485FFB8CF80E211
:102550008093CA0481E09FD9B5D7B1CF8091CC04D4
:1025600081FDADCF8091CC0480FD40C08091D3210E
:10257000813079F0843009F0A2CFCDCF80E4809310
:10258000CA0480E088D99DD79ACF11DC811197CFFA
:10259000BBCF83E08093D3211092E6211092E721F4
:1025A000E4EEF1E202E006938ACF80E18093CA0470
:1025B00081E0DFDE81E8DDDE0E94CD061092C304FB
:1025C0001092DD2196E09093DC2180E48093DD2160
:1025D0001092E5219093E4218093E52187EC91E22C
:1025E0008093E0219093E1218FD969CFE0DB8111C5
:1025F00066CFBCCF84E08093D321ECEDF1E202E022
:1026000006935DCF1F920F920FB60F921124EF9297
:10261000FF920F931F932F933F934F935F936F936B
:102620007F938F939F93AF93BF93CF93DF93EF935A
:10263000FF938091CC0481FD04C08091CC0480FD87
:1026400057C082E08093CC048091C504CCEDD1E2E8
:102650008195880FFE01E81BF109208131812C5DF5
:102660003142369527953695279536952795822FB1
:10267000869520FD3BC090E0890FE82FEF70F0E0D9
:10268000EE0FFF1F282F082E000C330B2227330FCD
:10269000221F3327E20FF31FEE0FFF1FEE0FFF1F66
:1026A000EE0FFF1FE452FE4D908195FF08C000E23F
:1026B0000693882309F1803809F462C0C4D9FF91D8
:1026C000EF91DF91CF91BF91AF919F918F917F91CA
:1026D0006F915F914F913F912F911F910F91FF90BB
:1026E000EF900F900FBE0F901F90189590E8C4CFF9
:1026F0005EDB8111E4CFA5CF8091D321843009F432
:1027000052C0E090DE21F090DF212091A422309190
:10271000A5228091CF219091D0218C010E0D1F1DFB
:102720002017310778F12091A2223091A322A7012E
:1027300067EC71E2820F931F0E94581F0093CF2114
:102740001093D02188E0E816F10409F435C0009315
:10275000A4221093A522E091A822F091A9223097FB
:10276000B1F00995811113C085E08093D321E5EE86
:10277000F1E204E00593EDEDF1E204E005939FCF73
:10278000E8D89DCF7901E81AF90A8901CCCF83E016
:102790008093D3211092E6211092E721E4EEF1E23A
:1027A00002E006938CCFE091A622F091A722309709
:1027B00009F00995A9D883CF8091D1219091D22198
:1027C000800F911F2091A0223091A12282179307A0
:1027D00008F0BDCF8091A4229091A5228017910787
:1027E00031F0FE0102E0069300E2069368CFE0912B
:1027F000A822F091A922309709F4B6CF0995882331
:1028000009F4B2CF2091D1213091D2218091CF21F2
:102810009091D021820F931F8093D1219093D22148
:102820001092CF211092D021DCCF80FF05C0009AFA
:1028300081FD05C001980895009881FFFBCF019AA2
:102840000895CF93DF9380B18295869586958370A6
:102850008F5F8370282F2295220F220F207C90B14A
:102860009F73922B90B921E030E0A90102C0440F80
:10287000551F8A95E2F7A0E2B6E016964C9316979C
:102880000000000000000000000000000000000048
:10289000E0B1E295E695E695E370F0E0C0B1C2954F
:1028A000C695C695C370D0E0CC0FDD1FCF5FDF4F5C
:1028B0009881C0E0D6E088858F738927EE0FFF1FCF
:1028C000EF5FFF4F8183E0B1E295E695E695E37017
:1028D000F0E088858F73EE0FFF1FEF5FFF4F80835F
:1028E0008FE015968C93DF91CF910895EF92FF9230
:1028F0000F931F9314E0E12EF12C00E010E025E38C
:1029000032E240E050E0BA0182E00E941C018111F5
:10291000FFCF21E332E244E050E060E070E082E08B
:102920000E941C018111F4CF8091352290913622B2
:10293000A0913722B09138228F3F9F4FAF4FBF4FAA
:1029400041F41092352210923622109237221092C2
:1029500038228091312290913222A0913322B0917D
:10296000342289339540A105B10590F1809131223F
:1029700090913222A0913322B09134228F3F9F4F09
:10298000AF4FBF4F29F18FE080932506809321063A
:102990008093B00080E8809330068FE38093020636
:1029A000809306068093B00088E58093100649DF87
:1029B00048DF47DF46DF8091030080FF04C080913D
:1029C000070085FD20C01F910F91FF90EF900895A3
:1029D00089E395E0A0E0B0E0809331229093322229
:1029E000A0933322B093342214E0E12EF12C00E0C6
:1029F00010E021E332E244E050E060E070E082E089
:102A00000E944C01C0CF1F910F91FF90EF900C944A
:102A10000302EF92FF920F931F93CF9380912D2289
:102A200090912E22A0912F22B091302240913522F8
:102A30005091362260913722709138228417950781
:102A4000A607B707A1F0892B8A2B8B2BC1F48091A5
:102A5000352290913622A0913722B091382280936E
:102A60002D2290932E22A0932F22B0933022C0E0EB
:102A70008C2FCF911F910F91FF90EF90089514E04C
:102A8000E12EF12C00E010E025E332E240E050E0DE
:102A9000BA0182E00E944C01C82F8111E9CF8091D8
:102AA000352290913622A0913722B091382280931E
:102AB0002D2290932E22A0932F22B093302240916A
:102AC00035225091362260913722709138228091C0
:102AD000312290913222A0913322B09134224817B2
:102AE00059076A077B0718F28091312290913222B0
:102AF000A0913322B0913422880F991FAA1FBB1FC7
:102B0000880F991FAA1FBB1F8093312290933222F6
:102B1000A0933322B093342221E332E244E050E028
:102B200060E070E082E00E944C01C82F45E261E263
:102B30008DE00E94EE019CCFCF93DF93CDB7DEB73F
:102B40002897CDBFDEBF98E0EAECF0E2DE011196F7
:102B500001900D929A95E1F790912C2221E0290F96
:102B600020932C22E1E0F0E0EC0FFD1FE90FF11DB6
:102B70009081981749F010922C222896CDBFDEBF85
:102B8000DF91CF910C9409022830B8F30E94030220
:102B900010922C222896CDBFDEBFDF91CF910895F1
:102BA0008F929F92AF92BF92CF92DF92EF92FF925D
:102BB0000F931F93CF93DF93C22FD0E0E82EF12C19
:102BC000062F10E04701880C991CF401EE0DFF1D43
:102BD000EE0FFF1F5E01AA0CBB1CC5018C0F9D1FD1
:102BE000880F991F880F991F880F991FE80FF91FE9
:102BF000E00FF11FEE0FFF1FE651FF4D4423A1F13F
:102C0000C180C0FC5BC0DD24D394C1FC5DC0C2FCAC
:102C100061C0E80CF91CEE0CFF1CCA0DDB1DCC0FCB
:102C2000DD1FCC0FDD1FCC0FDD1FCE0DDF1DC00F54
:102C3000D11FCC0FDD1FC651DF4DC881CC2321F041
:102C40008C2F0E941B05D8228C2F76DF8D2DDF91D3
:102C5000CF911F910F91FF90EF90DF90CF90BF9099
:102C6000AF909F908F9008958081811123C0DD24C3
:102C7000D394E80CF91CEE0CFF1CCA0DDB1DCC0F25
:102C8000DD1FCC0FDD1FCC0FDD1FEC0EFD1EE7019D
:102C9000C00FD11FCC0FDD1FC651DF4DC981C2FD52
:102CA00023C0C1FD1CC0C0FFD1CF81E00E94A5049C
:102CB000D822CCCF0E94E204D82EDBCF81E00E9444
:102CC000C404D82EC1FEA3CF82E00E94C404D8223F
:102CD000C2FE9FCF84E00E94C404D8229ACF82E033
:102CE0000E94A504D822DFCF84E00E94A504D82248
:102CF000D8CF8F929F92BF92CF92DF92EF92FF92A6
:102D00000F931F93CF93DF93B0B0B294B694B69461
:102D100093E0B922EB2DF0E0EE0FFF1FEF5FFF4FC6
:102D20008181882309F446C0C0E0D0E08F017F0193
:102D30008FEFE81AF80ACC24C394D12C04C0219652
:102D4000C630D105B9F1F701208130E00C2E02C068
:102D5000359527950A94E2F720FFF1CF20B1217035
:102D6000F801408146010C2E01C0880C0A94EAF754
:102D700048216C2F8B2D14DF882309F3F701808104
:102D80008094882280828091352290913622A09171
:102D90003722B09138220196A11DB11D80933522B2
:102DA00090933622A0933722B09338222196C630D2
:102DB000D10549F6DF91CF911F910F91FF90EF90D0
:102DC000DF90CF90BF909F908F9008951F93CF93E7
:102DD000DF93182F8091C920811195C08091C82060
:102DE00081115CC0809107228823C1F08091092263
:102DF00090910A2201978093092290930A22892BAD
:102E000009F4FEC0C12FD0E081E0CC0FDD1FCF5F01
:102E1000DF4F1982DF91CF911F9108958091082291
:102E2000882309F48EC08091092290910A2201978B
:102E30008093092290930A22892B21F7E0910622A0
:102E40008091C720E81709F40BC1F0E0E55FFD4D64
:102E5000908195FD0FC1892F869586958770282FC3
:102E600030E0263031053CF0937E863009F416C1FF
:102E70009460908381E0608163700E94590280E2D7
:102E800093E08093092290930A22E0910622F0E0D9
:102E9000E55FFD4D808180628083B4CFFDD7609374
:102EA0000B2270930C2280930D2290930E2280911E
:102EB000C720853008F08EC040E060E580E00E94C9
:102EC000EE011092C8208091C720823009F4AEC074
:102ED00084EF91E08093092290930A2280910B2243
:102EE0008F7D80930B2281E08093082280930722BC
:102EF000C12FD0E0CC0FDD1FCF5FDF4F1982DF91F4
:102F0000CF911F9108956091352270913622809162
:102F1000372290913822C3D7BFD760930B2270938A
:102F20000C2280930D2290930E22B6D760930B2231
:102F300070930C2280930D2290930E221092C92040
:102F40004DCFC12FD0E0CC0FDD1FFE01EF5FFF4F53
:102F500081819081892309F470C0809135229091FC
:102F60003622A0913722B09138220196A11DB11DC1
:102F70008093352290933622A0933722B093382243
:102F800090910622A92FB0E0A55FBD4D8C91282F0E
:102F90002370211310C0408150E08695869587707C
:102FA00021E030E002C0220F331F8A95E2F742177A
:102FB000530709F444C040E060E080E50E94EE0160
:102FC00082E08093C7201092062281E08093C8207F
:102FD00080E01DCFC0E060D7EC2FF0E0EE0FFF1FC8
:102FE000EE0FFF1FE15FFD4D60837183828393834A
:102FF000CF5F9091C72096959695C91760F35CCFE7
:103000000E94DC011092072288EE93E0809309224F
:1030100090930A22C12FD0E081E0CC0FDD1FCF5F5B
:10302000DF4F1982DF91CF911F9108958CED95E0CC
:103030008093092290930A2251CF81E0E8CE81E06B
:10304000890F809306222091C7208213F6CF9E5FBE
:103050009093C7201092062281E08093C820D7CE9B
:103060001092062210920822C12FD0E081E0CC0FEE
:10307000DD1FCDCE0E94DC0180E293E08093092227
:1030800090930A22E0910622EF5FE0930622F0E09F
:10309000E55FFD4D80818F7D8083B4CE906190830C
:1030A00084E0E9CECF92DF92EF92FF920F931F93CD
:1030B000CF93DF93C82F6091352270913622809193
:1030C00037229091382260930222709303228093DA
:1030D000042290930522E3D6DFD6609302227093F8
:1030E00003228093042290930522D6D66093022275
:1030F00070930322809304229093052280910122F1
:10310000893009F4A4C02091C5203091C620922FA7
:10311000832F283641E0340709F479C00CF049C008
:103120002C348FEF380709F450C02115310531F4E4
:103130000E94DC012091C5203091C6202150310928
:103140002093C5203093C620D0E0CC0FDD1FFE01B8
:10315000EF5FFF4F818190818923A9F18091352212
:1031600090913622A0913722B09138220196A11D6C
:10317000B11D8093352290933622A0933722B093CD
:103180003822808190E00090C32002C095958795F9
:103190000A94E2F780FF2EC081E0CF5FDF4F1982F3
:1031A000DF91CF911F910F91FF90EF90DF90CF9023
:1031B0000895283344E0340751F0203A85E0380779
:1031C00009F4B6CFBBCF81E0EBCF9CE182E0309138
:1031D000C2202091C320231709F445C02091C420A8
:1031E00021502093C420211102C03093C320292FE5
:1031F000382FA4CF40E060E080E50E94EE0188EB2C
:103200009BE08093C5209093C62080E0C6CF41E02C
:103210008091C420813009F45DC060E08091C320BA
:103220000E949E028091C2209091C320981709F4B9
:1032300081CF9091C420913009F07CCF41E061E0D2
:103240000E949E022091C5203091C62077CF24D6BF
:1032500060930222709303228093042290930522AC
:103260001092012250CF409102225091032260918E
:10327000042270910522E091012221E02E0F20937B
:1032800001222E2F30E0D901AA0FBB1F2A0F3B1FAE
:103290006A017B0104C0F694E794D794C7942A95F9
:1032A000D2F797018601FC2DF770F63060F4F093A9
:1032B000C22028E02E1B4770440F420F4093C420C9
:1032C000292F382F3BCF06950770063028F400933E
:1032D000C220EFCF40E0A1CFF450E9CF80912B2264
:1032E000982F80FD1EC09091070095FF06C021B168
:1032F00090910200922390FD02C08170089583E5B1
:103300000E94E20480E00E94000240E068E280E067
:103310000E94EE0190912B22916090932B2290FFBE
:103320008DC080B191FD0EC092FD57C082958695EB
:103330008695837093FD58C0833091F080912B2245
:103340008170089582958695869583703FDD909172
:103350002B2280FB91F990932B22892F8170089565
:10336000E0B1E295E695E695E370F0E0EE0FFF1F21
:10337000EF5FFF4F8181E0B1E295E695E695E3705E
:10338000F0E0EE0FFF1FEF5FFF4F90818923B1F256
:10339000E0B1E295E695E695E370F0E0EE0FFF1FF1
:1033A000EF5FFF4F8081823049F178F18430D9F1AD
:1033B000883009F03FC080912B22886080932B22B7
:1033C0008170E0B1E295E695E695E370F0E0EE0FEE
:1033D000FF1FEF5FFF4F1182089580912B228B7F9B
:1033E00080932B22817008955DDE90912B2280FBCB
:1033F00093F990932B22892F8170089580912B222D
:10340000826080932B228170DCCF813099F481E03F
:103410000E9400020E94DC0180912B228E7F80930B
:103420002B2280E0CECF80912B22846080932B22B0
:103430008170C7CF80912B228170C3CF81E0089526
:1034400087E08093A20078941092942210929522A3
:1034500010929622109297221092982281E08093E7
:1034600099220E9476030E94D8090E947C013EDACC
:103470000E94CB06F89480919422811109C0A5E99D
:10348000B2E2E0E0EF5F8D918823E1F3E11102C049
:103490007894F0CF80914800F0E0EB5FFF4D817FA2
:1034A0009081892B809348008091480081608093AF
:1034B000480078948895809148008E7F80934800DA
:1034C000D9CF0895089580913922811101C00895BE
:1034D000B8D904DF882309F440C00E940D10AC0164
:1034E0009C01AFE3B8EF80D40024880F991F001C23
:1034F000880F991F001C892F902D62E4689F90010E
:10350000699F300D11244217530721F10E940D10BD
:10351000AC019C01369527953695279536952795CC
:10352000A7E3BAE161D40024880F991F001C880F1B
:10353000991F001C892F902D68E873E1869F9001E8
:10354000879F300D969F300D11244217530709F0C5
:10355000BECF5FCA0E943203D9CFCBDBBECF81E0A2
:10356000809339220895109239220895E0E7F0E01F
:1035700084818E7F848381E080936106E0E0F9E0BE
:1035800087E190E086A397A383E181830895CF929A
:10359000DF92FF920F931F93CF93DF93162F662333
:1035A00009F44EC06C0122E0C20ED11CD0E028E02C
:1035B00030E0EFE0F0E0FF24FA9401E0C0E1C60162
:1035C0000197DC018C91A60142505109DA014C911E
:1035D00050E060E070E0762F652F542F4427682B71
:1035E000D6018C91782B77FD38C020932809309331
:1035F00029091092200910922109F0920C090093D8
:10360000000997E1440F551F661F771F80910C0931
:1036100084FFFCCFC0930C0977FD1AC020932809C2
:1036200030932909915071F780910C0984FFFCCFE8
:1036300010920009DF5FB3E0CB0ED11CD113BFCFD6
:10364000DF91CF911F910F91FF90DF90CF90089560
:10365000E0932809F0932909E5CFE0932809F09336
:103660002909C7CF4F925F926F927F928F929F925C
:10367000AF92BF92CF92DF92EF92FF920F931F9380
:10368000CF93DF93442309F466C0262F30E08901ED
:10369000000F111F020F131F4C0122E0820E911C1C
:1036A000B12C780183E0E81AF10828E030E0EFE07F
:1036B000F0E07FEF51E090E1B0FC68C0662309F4D0
:1036C00045C0D401A12C6D01D1E0CD1AD108E6018D
:1036D00088816D01D2E0CD1AD108E6014880512CD5
:1036E000612C712C762C652C542C4424682A8C91E6
:1036F000782A77FC46C02093280930932909109234
:1037000020091092210970930C0950930009C7E118
:10371000DC2E440C551C661C771C80910C0984FF20
:10372000FCCF90930C0977FC27C020932809309395
:103730002909DA94D110EDCF80910C0984FFFCCFD8
:1037400010920009A3941396A612BDCFB394800ED5
:10375000911EB412B1CFDF91CF911F910F91FF90C5
:10376000EF90DF90CF90BF90AF909F908F907F9021
:103770006F905F904F900895E0932809F093290986
:10378000D8CFE0932809F0932909B9CF6623F1F245
:10379000D701A80DB91DA12C6D01C1E0CC1AD1082B
:1037A000E60188816D01D2E0CD1AD108E60148809A
:1037B000512C612C712C762C652C542C4424682AB5
:1037C0008C91782A77FC31C02093280930932909FD
:1037D000109220091092210970930C09509300094E
:1037E000C7E1DC2E440C551C661C771C80910C092B
:1037F00084FFFCCF90930C0977FC12C0209328091A
:1038000030932909DA94D110EDCF80910C0984FF0F
:10381000FCCF10920009A3941397A612BDCF96CFA8
:10382000E0932809F0932909EDCFE0932809F0935C
:103830002909CECF0F931F93662389F0342F32705E
:10384000542F547040FD0EC05523D1F1FC013111AD
:103850001BC080E000838F5F33968613FBCF1F91E0
:103860000F910895FC015523B1F131111AC0319621
:1038700080E01083DF0111970C938F5F33968613DE
:10388000F8CF1F910F910895329680E02083DF01D9
:1038900012970C938F5F33968613F8CF1F910F9179
:1038A0000895329680E0DF0111971C9320831197D1
:1038B0000C938F5F33968613F6CF1F910F91089567
:1038C000332369F2FC01329680E020838F5F3396C8
:1038D0008613FBCFC4CF311108C0319680E010832E
:1038E0008F5F33968613FBCFBACF329680E0DF012D
:1038F00011971C9320838F5F33968613F8CFAFCF39
:10390000CF92DF92EF920F934423E1F0302F327089
:10391000502F547000FD1BC0552309F452C03323AF
:1039200009F440C030E0E22FF0E0DF01AA0FBB1F36
:10393000EA0FFB1FE80FF91FE282C0823F5F260FEC
:103940003413F1CF0F91EF90DF90CF90089555236E
:1039500009F44AC03323B1F030E0E22FF0E0DF0198
:10396000AA0FBB1FEA0FFB1FE80FF91FD182E282EB
:10397000C0823F5F260F3413F0CF0F91EF90DF909E
:10398000CF900895E22FF0E0DF01AA0FBB1FEA0FEE
:10399000FB1FE80FF91FD182C0823F5F260F34134F
:1039A000F1CFD0CFE22FF0E0DF01AA0FBB1FEA0F6B
:1039B000FB1FE80FF91FC0823F5F260F3413F2CFC1
:1039C000C1CF332309F4BECF30E0E22FF0E0DF01B6
:1039D000AA0FBB1FEA0FFB1FE80FF91FE2823F5F30
:1039E000260F3413F2CFAECF332389F030E0E22F2D
:1039F000F0E0DF01AA0FBB1FEA0FFB1FE80FF91F62
:103A0000D182E2823F5F260F3413F1CF9BCFE22FAA
:103A1000F0E0DF01AA0FBB1FEA0FFB1FE80FF91F41
:103A2000D1823F5F260F3413F2CF8CCFCF92DF923B
:103A3000EF920F93CF93DF93C22FD0E0E62FF0E009
:103A4000DF01A40FB11D1197CA17DB0714F5641726
:103A500038F1241708F07AC0422FE150502F5270ED
:103A6000302F347000FD33C0332309F49AC030E0A6
:103A700051115AC0622F70E0DB01AA0FBB1F6A0F01
:103A80007B1FDC01A60FB71FCC923F5F2E0F4317A1
:103A900088F7DF91CF910F91EF90DF90CF9008954D
:103AA0002617D0F2241708F083C04FEF460F9E016F
:103AB0002E1B3F0B2E5F3F4F629F202D1124215064
:103AC000E150502F5270302F347000FFCDCF332390
:103AD00009F440C030E0511112C0A22FB0E0BD0186
:103AE000660F771FA60FB71FA80FB91F1196DC929C
:103AF0001197CC923F5F2E0F431778F7CACFA22FB2
:103B0000B0E0BD01660F771FA60FB71FA80FB91F42
:103B10001196DC9211971296EC921297CC923F5F1D
:103B20002E0F431760F7B5CFA22FB0E0BD01660F8F
:103B3000771FA60FB71FA80FB91F1296EC92129706
:103B4000CC923F5F2E0F431778F7A3CF261780F54F
:103B5000415083CF5523A1F030E0A22FB0E0BD014A
:103B6000660F771FA60FB71FA80FB91F1196DC921B
:103B700011971296EC923F5F2E0F431770F789CF83
:103B8000622F70E0DB01AA0FBB1F6A0F7B1FDC01F5
:103B9000A60FB71F1196DC923F5F2E0F431780F7D9
:103BA00078CF511109C080E08F5F4817E8F771CFD7
:103BB0004250460F421B7BCF30E0622F70E0DB01AA
:103BC000AA0FBB1F6A0F7B1FDC01A60FB71F12963F
:103BD000EC923F5F2E0F431780F75BCFAF92BF92FF
:103BE000CF92DF92EF920F93CF93DF93DC01862F7A
:103BF00090E0C42FD0E0A22EB12CFC01EC0FFD1FF1
:103C00003197AE16BF06D4F5261720F43FEF360FD6
:103C1000321B232F6417D8F1E22FF0E05C01AC1ABD
:103C2000BD0AAE16BF060CF04FC0261708F4C2C07E
:103C30004250460F421BE81BF90B262F6E9F200DAA
:103C4000112491E0980F302F3270802F847000FD86
:103C500044C0882309F493C080E0311125C0622F4D
:103C600070E0FB01EE0FFF1F6E0F7F1FFD01E60FDF
:103C7000F71FC0828F5F290F481788F7DF91CF9118
:103C80000F91EF90DF90CF90BF90AF9008952417E1
:103C9000C8F54FEF460F261708F490C0281B269F43
:103CA000600D1124262FCDCFE22FF0E0BF01660F6B
:103CB000771FE60FF71FEA0FFB1FE282C0828F5FBC
:103CC000290F481788F7DACF415091E0980F302F2D
:103CD0003270802F847000FFBCCF882369F180E0B0
:103CE000311119C0E22FF0E0BF01660F771FE60F18
:103CF000F71FEA0FFB1FD182C0828F5F290F481781
:103D000088F7BCCF4250460F421B281B269F600DF0
:103D10001124262F96CFE22FF0E0BF01660F771F08
:103D2000E60FF71FEA0FFB1FD182E282C0828F5F8E
:103D3000290F481780F7A2CF332389F080E0E22FC4
:103D4000F0E0BF01660F771FE60FF71FEA0FFB1FBA
:103D5000D182E2828F5F290F481788F78FCF622FB9
:103D600070E0FB01EE0FFF1F6E0F7F1FFD01E60FDE
:103D7000F71FD1828F5F290F481788F77FCF332332
:103D800089F080E0622F70E0FB01EE0FFF1F6E0FE5
:103D90007F1FFD01E60FF71FE2828F5F290F481793
:103DA00088F76CCF8F5F481708F468CF8F5F48178C
:103DB000C8F764CF4FEF460F421B43CF421B41CFA2
:103DC000AA1BBB1B51E107C0AA1FBB1FA617B70741
:103DD00010F0A61BB70B881F991F5A95A9F780955D
:103DE0009095BC01CD010895A29FB001B39FC00181
:103DF000A39F700D811D1124911DB29F700D811D17
:103E00001124911D08958F929F92AF92BF92CF92ED
:103E1000DF92EF92FF92CF93DF93EC01688179817B
:103E20008A819B81611571058105910521F464E208
:103E300079ED8BE597E02DE133EF41E050E041D0A3
:103E400049015A019B01AC01A7EAB1E456D06B01CC
:103E50007C01ACEEB4EFA50194015BD0DC01CB0199
:103E60008C0D9D1DAE1DBF1DB7FF03C00197A1099D
:103E7000B04888839983AA83BB83BC01CD019F7717
:103E8000DF91CF91FF90EF90DF90CF90BF90AF90F8
:103E90009F908F900895B7CF80E090E2B4CF609369
:103EA00000207093012080930220909303200895B6
:103EB000FB01DC0102C001900D9241505040D8F747
:103EC0000895052E97FB16F400940FD057FD05D0EA
:103ED00024D007FC02D046F408C050954095309598
:103EE00021953F4F4F4F5F4F089590958095709566
:103EF00061957F4F8F4F9F4F089576DFA59F900D5F
:103F0000B49F900DA49F800D911D11240895B7FFBB
:103F1000F4CFF3DF821B930B0895A1E21A2EAA1BA4
:103F2000BB1BFD010DC0AA1FBB1FEE1FFF1FA21769
:103F3000B307E407F50720F0A21BB30BE40BF50B66
:103F4000661F771F881F991F1A9469F760957095EF
:103F5000809590959B01AC01BD01CF010895F89427
:023F6000FFCF91
:103F620001000000C601000E060C0400050109064E
:103F7200A101050719E029E715002501750195083A
:103F820081028101190029651500256575089506CC
:103F920081000508190129051500250175019505FE
:103FA200910295039101C039044A044C043704007C
:103FB200008020572000005E205B2047200009027D
:103FC200220001010080FA0904000001030001003F
:103FD200092111010001223B0007058103080002AB
:103FE2001201000200000008EB030124000101029B
:103FF20003010003000000000000000000000000B8
:104002000000000000000000484944204865787024
:1040120061640041544D454C204153460000040365
:104022000904020102A005020101060409080504AF
:1040320005084341464542414245310010002000F7
:104042004000800000010002FF030400040004009D
:1040520004000400040040050400040004000400FD
:1040620004000400040004000400040004005800DA
:1040720004000400040004005300620059005C00C4
:104082005F00040007001B005A005D00600005008D
:10409200080036005B005E0061000600090058005F
:0A40A2003E050A0409061506530046
:108000009BB78BBFFB018091CA014093CA017DE9F8
:1080100070933400E8958093CA019BBF0895209126
:10802000CF0127FDFCCF9BB78BBFFB018091CA011D
:1080300023E22093CA010A01E89511248093CA0122
:048040009BBF089545
:00000001FF
